{
  "contractName": "MlContract",
  "abi": [
    {
      "inputs": [
        {
          "internalType": "address",
          "name": "_oracleAddress",
          "type": "address"
        },
        {
          "internalType": "address",
          "name": "_contractOwner",
          "type": "address"
        },
        {
          "internalType": "string",
          "name": "_modelAddress",
          "type": "string"
        },
        {
          "internalType": "string",
          "name": "_testDataHash",
          "type": "string"
        },
        {
          "internalType": "string",
          "name": "_testDataLabelHash",
          "type": "string"
        },
        {
          "internalType": "uint256",
          "name": "_timestamp",
          "type": "uint256"
        },
        {
          "internalType": "uint256",
          "name": "_depositRequired",
          "type": "uint256"
        }
      ],
      "stateMutability": "payable",
      "type": "constructor"
    },
    {
      "anonymous": false,
      "inputs": [
        {
          "indexed": false,
          "internalType": "uint256",
          "name": "_requestId",
          "type": "uint256"
        }
      ],
      "name": "ComputationProvided",
      "type": "event"
    },
    {
      "anonymous": false,
      "inputs": [
        {
          "indexed": false,
          "internalType": "uint256",
          "name": "_requestId",
          "type": "uint256"
        },
        {
          "indexed": false,
          "internalType": "uint256",
          "name": "_clientId",
          "type": "uint256"
        },
        {
          "indexed": false,
          "internalType": "string",
          "name": "_weightsAddress",
          "type": "string"
        },
        {
          "indexed": false,
          "internalType": "uint256",
          "name": "_currentReputation",
          "type": "uint256"
        }
      ],
      "name": "ComputationRequestSingle",
      "type": "event"
    },
    {
      "anonymous": false,
      "inputs": [
        {
          "indexed": false,
          "internalType": "uint256",
          "name": "_requestId",
          "type": "uint256"
        },
        {
          "indexed": false,
          "internalType": "string",
          "name": "_modelAddress",
          "type": "string"
        },
        {
          "indexed": false,
          "internalType": "string",
          "name": "_testDataAddress",
          "type": "string"
        },
        {
          "indexed": false,
          "internalType": "string",
          "name": "_testLabelAddress",
          "type": "string"
        },
        {
          "indexed": false,
          "internalType": "string",
          "name": "_testDataHash",
          "type": "string"
        },
        {
          "indexed": false,
          "internalType": "string",
          "name": "_testLabelHash",
          "type": "string"
        }
      ],
      "name": "ComputationRequestTest",
      "type": "event"
    },
    {
      "anonymous": false,
      "inputs": [
        {
          "indexed": false,
          "internalType": "uint256",
          "name": "_clientId",
          "type": "uint256"
        },
        {
          "indexed": false,
          "internalType": "uint256",
          "name": "_deposit",
          "type": "uint256"
        },
        {
          "indexed": false,
          "internalType": "uint256",
          "name": "_roundOfTraining",
          "type": "uint256"
        },
        {
          "indexed": false,
          "internalType": "address",
          "name": "_clientAddress",
          "type": "address"
        }
      ],
      "name": "DepositReturned",
      "type": "event"
    },
    {
      "anonymous": false,
      "inputs": [
        {
          "indexed": false,
          "internalType": "uint256",
          "name": "requestId",
          "type": "uint256"
        }
      ],
      "name": "EndEvent",
      "type": "event"
    },
    {
      "anonymous": false,
      "inputs": [
        {
          "indexed": false,
          "internalType": "uint256",
          "name": "_clientId",
          "type": "uint256"
        },
        {
          "indexed": false,
          "internalType": "uint256",
          "name": "_reward",
          "type": "uint256"
        },
        {
          "indexed": false,
          "internalType": "uint256",
          "name": "_roundOfTraining",
          "type": "uint256"
        },
        {
          "indexed": false,
          "internalType": "address",
          "name": "_clientAddress",
          "type": "address"
        }
      ],
      "name": "RewardPaid",
      "type": "event"
    },
    {
      "anonymous": false,
      "inputs": [
        {
          "indexed": false,
          "internalType": "uint256",
          "name": "requestId",
          "type": "uint256"
        },
        {
          "indexed": false,
          "internalType": "uint256",
          "name": "_rewardPool",
          "type": "uint256"
        }
      ],
      "name": "StartEvent",
      "type": "event"
    },
    {
      "anonymous": false,
      "inputs": [
        {
          "indexed": false,
          "internalType": "uint256",
          "name": "_clientId",
          "type": "uint256"
        },
        {
          "indexed": false,
          "internalType": "string",
          "name": "_weightsAddress",
          "type": "string"
        },
        {
          "indexed": false,
          "internalType": "uint256",
          "name": "_reputation",
          "type": "uint256"
        },
        {
          "indexed": false,
          "internalType": "uint256",
          "name": "_block",
          "type": "uint256"
        }
      ],
      "name": "SubmissionDone",
      "type": "event"
    },
    {
      "inputs": [
        {
          "internalType": "address",
          "name": "",
          "type": "address"
        }
      ],
      "name": "addressToClientId",
      "outputs": [
        {
          "internalType": "uint256",
          "name": "",
          "type": "uint256"
        }
      ],
      "stateMutability": "view",
      "type": "function"
    },
    {
      "inputs": [],
      "name": "clientDeposit",
      "outputs": [
        {
          "internalType": "uint256",
          "name": "",
          "type": "uint256"
        }
      ],
      "stateMutability": "view",
      "type": "function"
    },
    {
      "inputs": [
        {
          "internalType": "uint256",
          "name": "",
          "type": "uint256"
        }
      ],
      "name": "clientIdDeposit",
      "outputs": [
        {
          "internalType": "uint256",
          "name": "",
          "type": "uint256"
        }
      ],
      "stateMutability": "view",
      "type": "function"
    },
    {
      "inputs": [
        {
          "internalType": "uint256",
          "name": "",
          "type": "uint256"
        }
      ],
      "name": "clientIdNewSubmission",
      "outputs": [
        {
          "internalType": "string",
          "name": "",
          "type": "string"
        }
      ],
      "stateMutability": "view",
      "type": "function"
    },
    {
      "inputs": [
        {
          "internalType": "uint256",
          "name": "",
          "type": "uint256"
        }
      ],
      "name": "clientIdReputation",
      "outputs": [
        {
          "internalType": "uint256",
          "name": "",
          "type": "uint256"
        }
      ],
      "stateMutability": "view",
      "type": "function"
    },
    {
      "inputs": [
        {
          "internalType": "uint256",
          "name": "",
          "type": "uint256"
        }
      ],
      "name": "clientIdToAddress",
      "outputs": [
        {
          "internalType": "address",
          "name": "",
          "type": "address"
        }
      ],
      "stateMutability": "view",
      "type": "function"
    },
    {
      "inputs": [],
      "name": "contractOwner",
      "outputs": [
        {
          "internalType": "address",
          "name": "",
          "type": "address"
        }
      ],
      "stateMutability": "view",
      "type": "function"
    },
    {
      "inputs": [],
      "name": "contractStatus",
      "outputs": [
        {
          "internalType": "uint256",
          "name": "",
          "type": "uint256"
        }
      ],
      "stateMutability": "view",
      "type": "function"
    },
    {
      "inputs": [],
      "name": "depositRequired",
      "outputs": [
        {
          "internalType": "uint256",
          "name": "",
          "type": "uint256"
        }
      ],
      "stateMutability": "view",
      "type": "function"
    },
    {
      "inputs": [],
      "name": "endTimestamp",
      "outputs": [
        {
          "internalType": "uint256",
          "name": "",
          "type": "uint256"
        }
      ],
      "stateMutability": "view",
      "type": "function"
    },
    {
      "inputs": [],
      "name": "nextClientId",
      "outputs": [
        {
          "internalType": "uint256",
          "name": "",
          "type": "uint256"
        }
      ],
      "stateMutability": "view",
      "type": "function"
    },
    {
      "inputs": [],
      "name": "nextRequestId",
      "outputs": [
        {
          "internalType": "uint256",
          "name": "",
          "type": "uint256"
        }
      ],
      "stateMutability": "view",
      "type": "function"
    },
    {
      "inputs": [],
      "name": "oracleAddress",
      "outputs": [
        {
          "internalType": "address",
          "name": "",
          "type": "address"
        }
      ],
      "stateMutability": "view",
      "type": "function"
    },
    {
      "inputs": [],
      "name": "platformFee",
      "outputs": [
        {
          "internalType": "uint256",
          "name": "",
          "type": "uint256"
        }
      ],
      "stateMutability": "view",
      "type": "function"
    },
    {
      "inputs": [],
      "name": "platformFeePool",
      "outputs": [
        {
          "internalType": "uint256",
          "name": "",
          "type": "uint256"
        }
      ],
      "stateMutability": "view",
      "type": "function"
    },
    {
      "inputs": [],
      "name": "rewardPool",
      "outputs": [
        {
          "internalType": "uint256",
          "name": "",
          "type": "uint256"
        }
      ],
      "stateMutability": "view",
      "type": "function"
    },
    {
      "inputs": [],
      "name": "roundOfTraining",
      "outputs": [
        {
          "internalType": "uint256",
          "name": "",
          "type": "uint256"
        }
      ],
      "stateMutability": "view",
      "type": "function"
    },
    {
      "inputs": [],
      "name": "startTimestamp",
      "outputs": [
        {
          "internalType": "uint256",
          "name": "",
          "type": "uint256"
        }
      ],
      "stateMutability": "view",
      "type": "function"
    },
    {
      "inputs": [
        {
          "internalType": "string",
          "name": "weightsAddress",
          "type": "string"
        }
      ],
      "name": "submitWeights",
      "outputs": [],
      "stateMutability": "payable",
      "type": "function"
    },
    {
      "inputs": [
        {
          "internalType": "string",
          "name": "testDataAddress",
          "type": "string"
        },
        {
          "internalType": "string",
          "name": "testDataLabelAddress",
          "type": "string"
        }
      ],
      "name": "startEvaluation",
      "outputs": [],
      "stateMutability": "nonpayable",
      "type": "function"
    },
    {
      "inputs": [
        {
          "internalType": "uint256",
          "name": "requestId",
          "type": "uint256"
        },
        {
          "internalType": "string",
          "name": "newModelAddress",
          "type": "string"
        },
        {
          "internalType": "int256[]",
          "name": "clientIds",
          "type": "int256[]"
        },
        {
          "internalType": "int256[]",
          "name": "clientNewReputations",
          "type": "int256[]"
        },
        {
          "internalType": "int256[]",
          "name": "clientRewards",
          "type": "int256[]"
        }
      ],
      "name": "provideData",
      "outputs": [],
      "stateMutability": "nonpayable",
      "type": "function"
    },
    {
      "inputs": [
        {
          "internalType": "uint256",
          "name": "nextTimestamp",
          "type": "uint256"
        },
        {
          "internalType": "string",
          "name": "_testDataHash",
          "type": "string"
        },
        {
          "internalType": "string",
          "name": "_testDataLabelHash",
          "type": "string"
        }
      ],
      "name": "startNextRound",
      "outputs": [],
      "stateMutability": "payable",
      "type": "function"
    },
    {
      "inputs": [
        {
          "internalType": "address",
          "name": "_newOracleAddress",
          "type": "address"
        }
      ],
      "name": "setOracleAddress",
      "outputs": [],
      "stateMutability": "nonpayable",
      "type": "function"
    },
    {
      "inputs": [
        {
          "internalType": "address",
          "name": "newOwner",
          "type": "address"
        }
      ],
      "name": "transferOwnership",
      "outputs": [],
      "stateMutability": "nonpayable",
      "type": "function"
    },
    {
      "inputs": [],
      "name": "increaseReward",
      "outputs": [],
      "stateMutability": "payable",
      "type": "function"
    },
    {
      "inputs": [],
      "name": "withdrawPlatformFee",
      "outputs": [],
      "stateMutability": "nonpayable",
      "type": "function"
    },
    {
      "inputs": [],
      "name": "getClientIdByAddress",
      "outputs": [
        {
          "internalType": "uint256",
          "name": "",
          "type": "uint256"
        }
      ],
      "stateMutability": "view",
      "type": "function"
    }
  ],
  "bytecode": "0x6080604052600a600c55600160135560016014556040516200350c3803806200350c833981810160405281019062000038919062000478565b606434116200007e576040517f08c379a00000000000000000000000000000000000000000000000000000000081526004016200007590620005e9565b60405180910390fd5b866000806101000a81548173ffffffffffffffffffffffffffffffffffffffff021916908373ffffffffffffffffffffffffffffffffffffffff16021790555085600160006101000a81548173ffffffffffffffffffffffffffffffffffffffff021916908373ffffffffffffffffffffffffffffffffffffffff1602179055508460049080519060200190620001179291906200018b565b508360059080519060200190620001309291906200018b565b508260069080519060200190620001499291906200018b565b504260028190555081600381905550346007819055506000600981905550600160088190555080600b819055506001600d81905550505050505050506200066f565b82805462000199906200063a565b90600052602060002090601f016020900481019282620001bd576000855562000209565b82601f10620001d857805160ff191683800117855562000209565b8280016001018555821562000209579182015b8281111562000208578251825591602001919060010190620001eb565b5b5090506200021891906200021c565b5090565b5b80821115620002375760008160009055506001016200021d565b5090565b6000604051905090565b600080fd5b600080fd5b600073ffffffffffffffffffffffffffffffffffffffff82169050919050565b60006200027c826200024f565b9050919050565b6200028e816200026f565b81146200029a57600080fd5b50565b600081519050620002ae8162000283565b92915050565b600080fd5b600080fd5b6000601f19601f8301169050919050565b7f4e487b7100000000000000000000000000000000000000000000000000000000600052604160045260246000fd5b6200030982620002be565b810181811067ffffffffffffffff821117156200032b576200032a620002cf565b5b80604052505050565b6000620003406200023b565b90506200034e8282620002fe565b919050565b600067ffffffffffffffff821115620003715762000370620002cf565b5b6200037c82620002be565b9050602081019050919050565b60005b83811015620003a95780820151818401526020810190506200038c565b83811115620003b9576000848401525b50505050565b6000620003d6620003d08462000353565b62000334565b905082815260208101848484011115620003f557620003f4620002b9565b5b6200040284828562000389565b509392505050565b600082601f830112620004225762000421620002b4565b5b815162000434848260208601620003bf565b91505092915050565b6000819050919050565b62000452816200043d565b81146200045e57600080fd5b50565b600081519050620004728162000447565b92915050565b600080600080600080600060e0888a0312156200049a576200049962000245565b5b6000620004aa8a828b016200029d565b9750506020620004bd8a828b016200029d565b965050604088015167ffffffffffffffff811115620004e157620004e06200024a565b5b620004ef8a828b016200040a565b955050606088015167ffffffffffffffff8111156200051357620005126200024a565b5b620005218a828b016200040a565b945050608088015167ffffffffffffffff8111156200054557620005446200024a565b5b620005538a828b016200040a565b93505060a0620005668a828b0162000461565b92505060c0620005798a828b0162000461565b91505092959891949750929550565b600082825260208201905092915050565b7f506c6561736520707574206465706f736974652e000000000000000000000000600082015250565b6000620005d160148362000588565b9150620005de8262000599565b602082019050919050565b600060208201905081810360008301526200060481620005c2565b9050919050565b7f4e487b7100000000000000000000000000000000000000000000000000000000600052602260045260246000fd5b600060028204905060018216806200065357607f821691505b6020821081036200066957620006686200060b565b5b50919050565b612e8d806200067f6000396000f3fe60806040526004361061019c5760003560e01c80637816e2ed116100ec578063d094ae411161008a578063e6fd48bc11610064578063e6fd48bc146105a0578063f07ff641146105cb578063f2fde38b146105f6578063ff28bcc21461061f5761019c565b8063d094ae411461050f578063dc9081981461054c578063df125333146105775761019c565b8063a85adeab116100c6578063a85adeab14610463578063a89ae4ba1461048e578063c6ee20d2146104b9578063ce606ee0146104e45761019c565b80637816e2ed146103df5780638d8a55e71461040a5780639c0afe60146104475761019c565b806338495cdf116101595780635841dcb3116101335780635841dcb314610335578063622aef9e1461035e57806366666aa9146103895780636a84a985146103b45761019c565b806338495cdf1461029257806339588f10146102cf5780634c69c00f1461030c5761019c565b8063202cefd5146101a157806323a21c4c146101b857806326232a2e146101d45780632a9605f4146101ff5780632e85d4851461022a5780633597d0e714610255575b600080fd5b3480156101ad57600080fd5b506101b6610629565b005b6101d260048036038101906101cd9190611c35565b61076f565b005b3480156101e057600080fd5b506101e9610a7b565b6040516101f69190611c97565b60405180910390f35b34801561020b57600080fd5b50610214610a81565b6040516102219190611c97565b60405180910390f35b34801561023657600080fd5b5061023f610a87565b60405161024c9190611c97565b60405180910390f35b34801561026157600080fd5b5061027c60048036038101906102779190611cde565b610ace565b6040516102899190611d93565b60405180910390f35b34801561029e57600080fd5b506102b960048036038101906102b49190611cde565b610b6e565b6040516102c69190611df6565b60405180910390f35b3480156102db57600080fd5b506102f660048036038101906102f19190611cde565b610ba1565b6040516103039190611c97565b60405180910390f35b34801561031857600080fd5b50610333600480360381019061032e9190611e3d565b610bb9565b005b34801561034157600080fd5b5061035c60048036038101906103579190611e6a565b610c8c565b005b34801561036a57600080fd5b50610373611029565b6040516103809190611c97565b60405180910390f35b34801561039557600080fd5b5061039e61102f565b6040516103ab9190611c97565b60405180910390f35b3480156103c057600080fd5b506103c9611035565b6040516103d69190611c97565b60405180910390f35b3480156103eb57600080fd5b506103f461103b565b6040516104019190611c97565b60405180910390f35b34801561041657600080fd5b50610431600480360381019061042c9190611e3d565b611041565b60405161043e9190611c97565b60405180910390f35b610461600480360381019061045c9190611ee2565b611059565b005b34801561046f57600080fd5b506104786111d9565b6040516104859190611c97565b60405180910390f35b34801561049a57600080fd5b506104a36111df565b6040516104b09190611df6565b60405180910390f35b3480156104c557600080fd5b506104ce611203565b6040516104db9190611c97565b60405180910390f35b3480156104f057600080fd5b506104f9611209565b6040516105069190611df6565b60405180910390f35b34801561051b57600080fd5b5061053660048036038101906105319190611cde565b61122f565b6040516105439190611c97565b60405180910390f35b34801561055857600080fd5b50610561611247565b60405161056e9190611c97565b60405180910390f35b34801561058357600080fd5b5061059e6004803603810190610599919061206b565b61124d565b005b3480156105ac57600080fd5b506105b561144b565b6040516105c29190611c97565b60405180910390f35b3480156105d757600080fd5b506105e0611451565b6040516105ed9190611c97565b60405180910390f35b34801561060257600080fd5b5061061d60048036038101906106189190611e3d565b611457565b005b61062761152b565b005b60008054906101000a900473ffffffffffffffffffffffffffffffffffffffff1673ffffffffffffffffffffffffffffffffffffffff163373ffffffffffffffffffffffffffffffffffffffff16146106b7576040517f08c379a00000000000000000000000000000000000000000000000000000000081526004016106ae906121c8565b60405180910390fd5b6000600a54116106fc576040517f08c379a00000000000000000000000000000000000000000000000000000000081526004016106f390612234565b60405180910390fd5b60008054906101000a900473ffffffffffffffffffffffffffffffffffffffff1673ffffffffffffffffffffffffffffffffffffffff166108fc600a549081150290604051600060405180830381858888f19350505050158015610764573d6000803e3d6000fd5b506000600a81905550565b6001600854146107b4576040517f08c379a00000000000000000000000000000000000000000000000000000000081526004016107ab906122c6565b60405180910390fd5b600b543410156107f9576040517f08c379a00000000000000000000000000000000000000000000000000000000081526004016107f090612358565b60405180910390fd5b60035442111561083e576040517f08c379a0000000000000000000000000000000000000000000000000000000008152600401610835906123c4565b60405180910390fd5b600c54600a60008282546108529190612413565b925050819055506000600c54346108699190612469565b9050806009600082825461087d9190612413565b92505081905550600080600f60003373ffffffffffffffffffffffffffffffffffffffff1673ffffffffffffffffffffffffffffffffffffffff16815260200190815260200160002054036109a35733600e6000601454815260200190815260200160002060006101000a81548173ffffffffffffffffffffffffffffffffffffffff021916908373ffffffffffffffffffffffffffffffffffffffff160217905550601454600f60003373ffffffffffffffffffffffffffffffffffffffff1673ffffffffffffffffffffffffffffffffffffffff168152602001908152602001600020819055506064601160006014548152602001908152602001600020819055506014549050601460008154809291906109999061249d565b91905055506109e6565b600f60003373ffffffffffffffffffffffffffffffffffffffff1673ffffffffffffffffffffffffffffffffffffffff1681526020019081526020016000205490505b81601260008381526020019081526020016000208190555082601060008381526020019081526020016000209080519060200190610a25929190611a38565b507f87ca3e1742bfbecb6f148e63fb9bfdccee8032e23618cf9a01b05cabfb1a4d678184601160008581526020019081526020016000205443604051610a6e94939291906124e5565b60405180910390a1505050565b600c5481565b600b5481565b6000600f60003373ffffffffffffffffffffffffffffffffffffffff1673ffffffffffffffffffffffffffffffffffffffff16815260200190815260200160002054905090565b60106020528060005260406000206000915090508054610aed90612560565b80601f0160208091040260200160405190810160405280929190818152602001828054610b1990612560565b8015610b665780601f10610b3b57610100808354040283529160200191610b66565b820191906000526020600020905b815481529060010190602001808311610b4957829003601f168201915b505050505081565b600e6020528060005260406000206000915054906101000a900473ffffffffffffffffffffffffffffffffffffffff1681565b60116020528060005260406000206000915090505481565b600160009054906101000a900473ffffffffffffffffffffffffffffffffffffffff1673ffffffffffffffffffffffffffffffffffffffff163373ffffffffffffffffffffffffffffffffffffffff1614610c49576040517f08c379a0000000000000000000000000000000000000000000000000000000008152600401610c4090612603565b60405180910390fd5b806000806101000a81548173ffffffffffffffffffffffffffffffffffffffff021916908373ffffffffffffffffffffffffffffffffffffffff16021790555050565b60008054906101000a900473ffffffffffffffffffffffffffffffffffffffff1673ffffffffffffffffffffffffffffffffffffffff163373ffffffffffffffffffffffffffffffffffffffff161480610d335750600160009054906101000a900473ffffffffffffffffffffffffffffffffffffffff1673ffffffffffffffffffffffffffffffffffffffff163373ffffffffffffffffffffffffffffffffffffffff16145b80610d7e57506000600f60003373ffffffffffffffffffffffffffffffffffffffff1673ffffffffffffffffffffffffffffffffffffffff1681526020019081526020016000205414155b610dbd576040517f08c379a0000000000000000000000000000000000000000000000000000000008152600401610db490612695565b60405180910390fd5b600160085414610e02576040517f08c379a0000000000000000000000000000000000000000000000000000000008152600401610df9906122c6565b60405180910390fd5b600160085414610e47576040517f08c379a0000000000000000000000000000000000000000000000000000000008152600401610e3e90612727565b60405180910390fd5b600160009054906101000a900473ffffffffffffffffffffffffffffffffffffffff1673ffffffffffffffffffffffffffffffffffffffff163373ffffffffffffffffffffffffffffffffffffffff161480610eee575060008054906101000a900473ffffffffffffffffffffffffffffffffffffffff1673ffffffffffffffffffffffffffffffffffffffff163373ffffffffffffffffffffffffffffffffffffffff16145b15610f3d57600354421015610f38576040517f08c379a0000000000000000000000000000000000000000000000000000000008152600401610f2f906127b9565b60405180910390fd5b611013565b62015180600354610f4e9190612413565b421015610f90576040517f08c379a0000000000000000000000000000000000000000000000000000000008152600401610f8790612871565b60405180910390fd5b6000600f60003373ffffffffffffffffffffffffffffffffffffffff1673ffffffffffffffffffffffffffffffffffffffff1681526020019081526020016000205403611012576040517f08c379a000000000000000000000000000000000000000000000000000000000815260040161100990612903565b60405180910390fd5b5b600260088190555061102582826115d6565b5050565b600a5481565b60075481565b60135481565b60145481565b600f6020528060005260406000206000915090505481565b60036008541461109e576040517f08c379a000000000000000000000000000000000000000000000000000000000815260040161109590612995565b60405180910390fd5b600160009054906101000a900473ffffffffffffffffffffffffffffffffffffffff1673ffffffffffffffffffffffffffffffffffffffff163373ffffffffffffffffffffffffffffffffffffffff161461112e576040517f08c379a000000000000000000000000000000000000000000000000000000000815260040161112590612603565b60405180910390fd5b60003411611171576040517f08c379a000000000000000000000000000000000000000000000000000000000815260040161116890612a01565b60405180910390fd5b3460078190555060016008819055504260028190555082600381905550600d60008154809291906111a19061249d565b919050555081600590805190602001906111bc929190611a38565b5080600690805190602001906111d3929190611a38565b50505050565b60035481565b60008054906101000a900473ffffffffffffffffffffffffffffffffffffffff1681565b60085481565b600160009054906101000a900473ffffffffffffffffffffffffffffffffffffffff1681565b60126020528060005260406000206000915090505481565b600d5481565b60008054906101000a900473ffffffffffffffffffffffffffffffffffffffff1673ffffffffffffffffffffffffffffffffffffffff163373ffffffffffffffffffffffffffffffffffffffff16146112db576040517f08c379a00000000000000000000000000000000000000000000000000000000081526004016112d2906121c8565b60405180910390fd5b600260085414611320576040517f08c379a000000000000000000000000000000000000000000000000000000000815260040161131790612a93565b60405180910390fd5b60005b83518110156113ed5782818151811061133f5761133e612ab3565b5b60200260200101516011600086848151811061135e5761135d612ab3565b5b6020026020010151815260200190815260200160002081905550600082828151811061138d5761138c612ab3565b5b602002602001015113156113da576113d98482815181106113b1576113b0612ab3565b5b60200260200101518383815181106113cc576113cb612ab3565b5b60200260200101516117b3565b5b80806113e59061249d565b915050611323565b508360049080519060200190611404929190611a38565b507f954d615937b753cf2f287614528733409a3de499a41a341cd1dbf43b24ab0c0f856040516114349190611c97565b60405180910390a160036008819055505050505050565b60025481565b60095481565b600160009054906101000a900473ffffffffffffffffffffffffffffffffffffffff1673ffffffffffffffffffffffffffffffffffffffff163373ffffffffffffffffffffffffffffffffffffffff16146114e7576040517f08c379a00000000000000000000000000000000000000000000000000000000081526004016114de90612603565b60405180910390fd5b80600160006101000a81548173ffffffffffffffffffffffffffffffffffffffff021916908373ffffffffffffffffffffffffffffffffffffffff16021790555050565b600160009054906101000a900473ffffffffffffffffffffffffffffffffffffffff1673ffffffffffffffffffffffffffffffffffffffff163373ffffffffffffffffffffffffffffffffffffffff16146115bb576040517f08c379a00000000000000000000000000000000000000000000000000000000081526004016115b290612603565b60405180910390fd5b34600760008282546115cd9190612413565b92505081905550565b600060135490507faa6d410a17ec6f559fb71643fa84c722d4a372374e7227298461831a170bfbc181600754604051611610929190612ae2565b60405180910390a17fee4d138a9a331ee506450fae35e80901dc1d1a0f88d7fe870fabfc6fe8dcdc5081600485856005600660405161165496959493929190612ba0565b60405180910390a16000600190505b60145481101561175e576040518060200160405280600081525080519060200120601060008381526020019081526020016000206040516116a49190612cc3565b60405180910390201461174b577f3910115e651db63dac5c27949180dc96d86ef98258722028d7794c96cd9aa48d828260106000858152602001908152602001600020601160008681526020019081526020016000205460405161170b9493929190612cda565b60405180910390a160405180602001604052806000815250601060008381526020019081526020016000209080519060200190611749929190611a38565b505b80806117569061249d565b915050611663565b507f93a213c4c585fbfd035779d3ae8b51184493956fde5f124674c38a9927e389f78160405161178e9190611c97565b60405180910390a1601360008154809291906117a99061249d565b9190505550505050565b8060075410156117f8576040517f08c379a00000000000000000000000000000000000000000000000000000000081526004016117ef90612d98565b60405180910390fd5b806007600082825461180a9190612469565b92505081905550600e600083815260200190815260200160002060009054906101000a900473ffffffffffffffffffffffffffffffffffffffff1673ffffffffffffffffffffffffffffffffffffffff166108fc60018361186b9190612db8565b9081150290604051600060405180830381858888f19350505050158015611896573d6000803e3d6000fd5b507ffc35a7fc75410ff2971292bbdf499a190de5b4398ed6a932872f501626076e368282600d54600e600087815260200190815260200160002060009054906101000a900473ffffffffffffffffffffffffffffffffffffffff166040516119019493929190612e12565b60405180910390a1600e600083815260200190815260200160002060009054906101000a900473ffffffffffffffffffffffffffffffffffffffff1673ffffffffffffffffffffffffffffffffffffffff166108fc60126000858152602001908152602001600020549081150290604051600060405180830381858888f19350505050158015611995573d6000803e3d6000fd5b50600060126000848152602001908152602001600020819055507fcf324f29380ced4cf033bec454d0662e8e0d8f7085241cc4e67fe12ec78c4b3e826012600085815260200190815260200160002054600d54600e600087815260200190815260200160002060009054906101000a900473ffffffffffffffffffffffffffffffffffffffff16604051611a2c9493929190612e12565b60405180910390a15050565b828054611a4490612560565b90600052602060002090601f016020900481019282611a665760008555611aad565b82601f10611a7f57805160ff1916838001178555611aad565b82800160010185558215611aad579182015b82811115611aac578251825591602001919060010190611a91565b5b509050611aba9190611abe565b5090565b5b80821115611ad7576000816000905550600101611abf565b5090565b6000604051905090565b600080fd5b600080fd5b600080fd5b600080fd5b6000601f19601f8301169050919050565b7f4e487b7100000000000000000000000000000000000000000000000000000000600052604160045260246000fd5b611b4282611af9565b810181811067ffffffffffffffff82111715611b6157611b60611b0a565b5b80604052505050565b6000611b74611adb565b9050611b808282611b39565b919050565b600067ffffffffffffffff821115611ba057611b9f611b0a565b5b611ba982611af9565b9050602081019050919050565b82818337600083830152505050565b6000611bd8611bd384611b85565b611b6a565b905082815260208101848484011115611bf457611bf3611af4565b5b611bff848285611bb6565b509392505050565b600082601f830112611c1c57611c1b611aef565b5b8135611c2c848260208601611bc5565b91505092915050565b600060208284031215611c4b57611c4a611ae5565b5b600082013567ffffffffffffffff811115611c6957611c68611aea565b5b611c7584828501611c07565b91505092915050565b6000819050919050565b611c9181611c7e565b82525050565b6000602082019050611cac6000830184611c88565b92915050565b611cbb81611c7e565b8114611cc657600080fd5b50565b600081359050611cd881611cb2565b92915050565b600060208284031215611cf457611cf3611ae5565b5b6000611d0284828501611cc9565b91505092915050565b600081519050919050565b600082825260208201905092915050565b60005b83811015611d45578082015181840152602081019050611d2a565b83811115611d54576000848401525b50505050565b6000611d6582611d0b565b611d6f8185611d16565b9350611d7f818560208601611d27565b611d8881611af9565b840191505092915050565b60006020820190508181036000830152611dad8184611d5a565b905092915050565b600073ffffffffffffffffffffffffffffffffffffffff82169050919050565b6000611de082611db5565b9050919050565b611df081611dd5565b82525050565b6000602082019050611e0b6000830184611de7565b92915050565b611e1a81611dd5565b8114611e2557600080fd5b50565b600081359050611e3781611e11565b92915050565b600060208284031215611e5357611e52611ae5565b5b6000611e6184828501611e28565b91505092915050565b60008060408385031215611e8157611e80611ae5565b5b600083013567ffffffffffffffff811115611e9f57611e9e611aea565b5b611eab85828601611c07565b925050602083013567ffffffffffffffff811115611ecc57611ecb611aea565b5b611ed885828601611c07565b9150509250929050565b600080600060608486031215611efb57611efa611ae5565b5b6000611f0986828701611cc9565b935050602084013567ffffffffffffffff811115611f2a57611f29611aea565b5b611f3686828701611c07565b925050604084013567ffffffffffffffff811115611f5757611f56611aea565b5b611f6386828701611c07565b9150509250925092565b600067ffffffffffffffff821115611f8857611f87611b0a565b5b602082029050602081019050919050565b600080fd5b6000819050919050565b611fb181611f9e565b8114611fbc57600080fd5b50565b600081359050611fce81611fa8565b92915050565b6000611fe7611fe284611f6d565b611b6a565b9050808382526020820190506020840283018581111561200a57612009611f99565b5b835b81811015612033578061201f8882611fbf565b84526020840193505060208101905061200c565b5050509392505050565b600082601f83011261205257612051611aef565b5b8135612062848260208601611fd4565b91505092915050565b600080600080600060a0868803121561208757612086611ae5565b5b600061209588828901611cc9565b955050602086013567ffffffffffffffff8111156120b6576120b5611aea565b5b6120c288828901611c07565b945050604086013567ffffffffffffffff8111156120e3576120e2611aea565b5b6120ef8882890161203d565b935050606086013567ffffffffffffffff8111156121105761210f611aea565b5b61211c8882890161203d565b925050608086013567ffffffffffffffff81111561213d5761213c611aea565b5b6121498882890161203d565b9150509295509295909350565b7f4f6e6c7920746865206f7261636c652063616e2063616c6c207468697320667560008201527f6e6374696f6e2e00000000000000000000000000000000000000000000000000602082015250565b60006121b2602783611d16565b91506121bd82612156565b604082019050919050565b600060208201905081810360008301526121e1816121a5565b9050919050565b7f4e6f20706c6174666f726d2066656520746f2077697468647261772e00000000600082015250565b600061221e601c83611d16565b9150612229826121e8565b602082019050919050565b6000602082019050818103600083015261224d81612211565b9050919050565b7f54686520636f6e7472616374206973206e6f7420696e20746865207375626d6960008201527f7373696f6e2073746167652e0000000000000000000000000000000000000000602082015250565b60006122b0602c83611d16565b91506122bb82612254565b604082019050919050565b600060208201905081810360008301526122df816122a3565b9050919050565b7f506c6561736520707574206465706f7369746520656e6f75676820776569206160008201527f63636f7264696e6720746f2074686520636f6e74726163742e00000000000000602082015250565b6000612342603983611d16565b915061234d826122e6565b604082019050919050565b6000602082019050818103600083015261237181612335565b9050919050565b7f546865207375626d697373696f6e20706572696f642068617320656e6465642e600082015250565b60006123ae602083611d16565b91506123b982612378565b602082019050919050565b600060208201905081810360008301526123dd816123a1565b9050919050565b7f4e487b7100000000000000000000000000000000000000000000000000000000600052601160045260246000fd5b600061241e82611c7e565b915061242983611c7e565b9250827fffffffffffffffffffffffffffffffffffffffffffffffffffffffffffffffff0382111561245e5761245d6123e4565b5b828201905092915050565b600061247482611c7e565b915061247f83611c7e565b925082821015612492576124916123e4565b5b828203905092915050565b60006124a882611c7e565b91507fffffffffffffffffffffffffffffffffffffffffffffffffffffffffffffffff82036124da576124d96123e4565b5b600182019050919050565b60006080820190506124fa6000830187611c88565b818103602083015261250c8186611d5a565b905061251b6040830185611c88565b6125286060830184611c88565b95945050505050565b7f4e487b7100000000000000000000000000000000000000000000000000000000600052602260045260246000fd5b6000600282049050600182168061257857607f821691505b60208210810361258b5761258a612531565b5b50919050565b7f4f6e6c792074686520636f6e7472616374206f776e65722063616e2063616c6c60008201527f20746869732066756e6374696f6e2e0000000000000000000000000000000000602082015250565b60006125ed602f83611d16565b91506125f882612591565b604082019050919050565b6000602082019050818103600083015261261c816125e0565b9050919050565b7f4f6e6c7920746865207061727469636970616e74732063616e2063616c6c207460008201527f6869732066756e6374696f6e2e00000000000000000000000000000000000000602082015250565b600061267f602d83611d16565b915061268a82612623565b604082019050919050565b600060208201905081810360008301526126ae81612672565b9050919050565b7f54686520636f6e7472616374206576616c756174696f6e20737461676520686160008201527f73206265656e20737461727465642e0000000000000000000000000000000000602082015250565b6000612711602f83611d16565b915061271c826126b5565b604082019050919050565b6000602082019050818103600083015261274081612704565b9050919050565b7f546865207375626d697373696f6e20706572696f6420686173206e6f7420656e60008201527f646564207965742e000000000000000000000000000000000000000000000000602082015250565b60006127a3602883611d16565b91506127ae82612747565b604082019050919050565b600060208201905081810360008301526127d281612796565b9050919050565b7f546865207061727469636970616e74732063616e206f6e6c792063616c6c207460008201527f6869732066756e6374696f6e206166746572203120646179206966207468652060208201527f6f776e657220686173206e6f742063616c6c65642069742e0000000000000000604082015250565b600061285b605883611d16565b9150612866826127d9565b606082019050919050565b6000602082019050818103600083015261288a8161284e565b9050919050565b7f4f6e6c792074686520636c69656e742063616e2063616c6c207468697320667560008201527f6e6374696f6e2e00000000000000000000000000000000000000000000000000602082015250565b60006128ed602783611d16565b91506128f882612891565b604082019050919050565b6000602082019050818103600083015261291c816128e0565b9050919050565b7f5468652063757272656e7420726f756e64206973206e6f7420636f6d706c657460008201527f65642e0000000000000000000000000000000000000000000000000000000000602082015250565b600061297f602383611d16565b915061298a82612923565b604082019050919050565b600060208201905081810360008301526129ae81612972565b9050919050565b7f506c6561736520707574206465706f736974652e000000000000000000000000600082015250565b60006129eb601483611d16565b91506129f6826129b5565b602082019050919050565b60006020820190508181036000830152612a1a816129de565b9050919050565b7f54686520636f6e7472616374206973206e6f7420696e20746865206576616c7560008201527f6174696f6e2073746167652e0000000000000000000000000000000000000000602082015250565b6000612a7d602c83611d16565b9150612a8882612a21565b604082019050919050565b60006020820190508181036000830152612aac81612a70565b9050919050565b7f4e487b7100000000000000000000000000000000000000000000000000000000600052603260045260246000fd5b6000604082019050612af76000830185611c88565b612b046020830184611c88565b9392505050565b60008190508160005260206000209050919050565b60008154612b2d81612560565b612b378186611d16565b94506001821660008114612b525760018114612b6457612b97565b60ff1983168652602086019350612b97565b612b6d85612b0b565b60005b83811015612b8f57815481890152600182019150602081019050612b70565b808801955050505b50505092915050565b600060c082019050612bb56000830189611c88565b8181036020830152612bc78188612b20565b90508181036040830152612bdb8187611d5a565b90508181036060830152612bef8186611d5a565b90508181036080830152612c038185612b20565b905081810360a0830152612c178184612b20565b9050979650505050505050565b600081905092915050565b60008190508160005260206000209050919050565b60008154612c5181612560565b612c5b8186612c24565b94506001821660008114612c765760018114612c8757612cba565b60ff19831686528186019350612cba565b612c9085612c2f565b60005b83811015612cb257815481890152600182019150602081019050612c93565b838801955050505b50505092915050565b6000612ccf8284612c44565b915081905092915050565b6000608082019050612cef6000830187611c88565b612cfc6020830186611c88565b8181036040830152612d0e8185612b20565b9050612d1d6060830184611c88565b95945050505050565b7f4e6f7420656e6f7567682066756e647320696e2074686520726577617264207060008201527f6f6f6c2e00000000000000000000000000000000000000000000000000000000602082015250565b6000612d82602483611d16565b9150612d8d82612d26565b604082019050919050565b60006020820190508181036000830152612db181612d75565b9050919050565b6000612dc382611c7e565b9150612dce83611c7e565b9250817fffffffffffffffffffffffffffffffffffffffffffffffffffffffffffffffff0483118215151615612e0757612e066123e4565b5b828202905092915050565b6000608082019050612e276000830187611c88565b612e346020830186611c88565b612e416040830185611c88565b612e4e6060830184611de7565b9594505050505056fea2646970667358221220cc1b4ae6cb2115720d69784f2a2d5e4f70ead6eb0626ed83f73d3fb2c5cddb6b64736f6c634300080d0033",
  "immutableReferences": {},
  "source": "// SPDX-License-Identifier: MIT\npragma solidity ^0.8.0;\n\ncontract MlContract {\n    address public oracleAddress;\n    address public contractOwner;\n    uint256 public startTimestamp;\n    uint256 public endTimestamp;\n    string private modelAddress;\n    string private testDataHash;\n    string private testDataLabelHash;\n    uint256 public rewardPool;\n    uint256 public contractStatus; // 1: Submission, 2: Evaluation, 3: Completed\n    uint256 public clientDeposit;\n    uint256 public platformFeePool;\n    uint256 public depositRequired;\n    uint256 public platformFee = 10;\n    uint256 public roundOfTraining;\n\n    // Modifiers\n    modifier onlyOracle() {\n        require(msg.sender == oracleAddress, \"Only the oracle can call this function.\");\n        _;\n    }\n    modifier onlyOwner() {\n        require(msg.sender == contractOwner, \"Only the contract owner can call this function.\");\n        _;\n    }\n    modifier onlyParticipants() {\n        require(msg.sender == oracleAddress || msg.sender == contractOwner || addressToClientId[msg.sender] != 0, \"Only the participants can call this function.\");\n        _;\n    }\n\n    modifier onlySubmission() {\n        require(contractStatus == 1, \"The contract is not in the submission stage.\");\n        _;\n    }\n\n    modifier onlyEvaluation() {\n        require(contractStatus == 2, \"The contract is not in the evaluation stage.\");\n        _;\n    }\n\n    modifier onlyCompleted() {\n        require(contractStatus == 3, \"The current round is not completed.\");\n        _;\n    }\n\n    // ********** Initialize Stage **********\n    // Initialize the contract with the address of the oracle / model to train / Hash of the test data\n    constructor (address _oracleAddress, address _contractOwner, string memory _modelAddress, string memory _testDataHash, string memory _testDataLabelHash, uint256 _timestamp, uint256 _depositRequired) payable {\n        require(msg.value > 100, \"Please put deposite.\");\n        oracleAddress = _oracleAddress;\n        contractOwner = _contractOwner; // \n        modelAddress = _modelAddress;\n        testDataHash = _testDataHash;\n        testDataLabelHash = _testDataLabelHash;\n        startTimestamp = block.timestamp;\n        endTimestamp = _timestamp;\n        rewardPool = msg.value; // wei\n        clientDeposit = 0;\n        contractStatus = 1;\n        depositRequired = _depositRequired;\n        roundOfTraining = 1;\n    }\n\n    // Events for off-chain oracles to listen to\n    event StartEvent(uint256 requestId, uint256 _rewardPool);\n    event EndEvent(uint256 requestId);\n    event ComputationRequestSingle(uint256 _requestId, uint256 _clientId, string _weightsAddress, uint256 _currentReputation);\n    event ComputationRequestTest(uint256 _requestId, string _modelAddress, string _testDataAddress, string _testLabelAddress, string _testDataHash, string _testLabelHash);\n    event ComputationProvided(uint256 _requestId);\n    event SubmissionDone(uint256 _clientId, string _weightsAddress, uint256 _reputation, uint256 _block);\n    event RewardPaid(uint256 _clientId, uint256 _reward, uint256 _roundOfTraining, address _clientAddress);\n    event DepositReturned(uint256 _clientId, uint256 _deposit, uint256 _roundOfTraining, address _clientAddress);\n\n    // Mapping to store the data requested by the client\n    mapping(uint256 => address) public clientIdToAddress;\n    mapping(address => uint256) public addressToClientId;\n    mapping(uint256 => string) public clientIdNewSubmission;\n    mapping(uint256 => uint256) public clientIdReputation;\n    mapping(uint256 => uint256) public clientIdDeposit;\n\n    // Variables\n    uint256 public nextRequestId = 1; // For interaction with the oracle\n    uint256 public nextClientId = 1; // For interaction with the client\n\n    // ********** Client Submission Stage **********\n    // Function for the client to submit their weights\n    function submitWeights(string memory weightsAddress) public payable onlySubmission {\n        require(msg.value >= depositRequired, \"Please put deposite enough wei according to the contract.\");\n        require(block.timestamp <= endTimestamp, \"The submission period has ended.\");\n        platformFeePool += platformFee;\n        uint256 deposit = msg.value - platformFee;\n        clientDeposit += deposit;\n        \n        // If the client has not submitted before, add them to the mapping\n        uint256 clientId;\n        if (addressToClientId[msg.sender] == 0) {\n            clientIdToAddress[nextClientId] = msg.sender;\n            addressToClientId[msg.sender] = nextClientId;\n            clientIdReputation[nextClientId] = 100; // Initialize reputation as 1.00\n            clientId = nextClientId;\n            nextClientId++;\n        } else {\n            clientId = addressToClientId[msg.sender];\n        }\n        clientIdDeposit[clientId] = deposit;\n        clientIdNewSubmission[clientId] = weightsAddress;\n        emit SubmissionDone(clientId, weightsAddress, clientIdReputation[clientId], block.number);\n    }\n\n    // ********** Evaluation Stage **********\n    // Function to request computation from the oracle\n    function startEvaluation(string memory testDataAddress, string memory testDataLabelAddress) public onlyParticipants onlySubmission {\n        require(contractStatus == 1, \"The contract evaluation stage has been started.\");\n        if (msg.sender == contractOwner || msg.sender == oracleAddress) {\n            require(block.timestamp >= endTimestamp, \"The submission period has not ended yet.\");\n        } else {\n            // One day is 86400\n            require(block.timestamp >= endTimestamp + 86400, \"The participants can only call this function after 1 day if the owner has not called it.\");\n            require(addressToClientId[msg.sender] != 0, \"Only the client can call this function.\");\n        }\n        contractStatus = 2;\n        // Request data from the oracle\n        requestDataFromOracle(testDataAddress, testDataLabelAddress);\n        \n    }\n\n    function requestDataFromOracle(string memory testDataAddress, string memory testDataLabelAddress) private {\n        uint256 requestId = nextRequestId;\n        emit StartEvent(requestId, rewardPool);\n        emit ComputationRequestTest(requestId, modelAddress, testDataAddress, testDataLabelAddress, testDataHash, testDataLabelHash);\n        for (uint256 i = 1; i < nextClientId; i++) {\n            if (keccak256(bytes(clientIdNewSubmission[i])) != keccak256(bytes(\"\"))) {\n                emit ComputationRequestSingle(requestId, i, clientIdNewSubmission[i], clientIdReputation[i]);\n                clientIdNewSubmission[i] = \"\"; // Reset the submission\n            }\n        }\n        emit EndEvent(requestId);\n        nextRequestId++;\n    }\n\n    // Function for the oracle to provide data\n    function provideData(uint256 requestId, string memory newModelAddress, int256[] memory clientIds, int256[] memory clientNewReputations, int256[] memory clientRewards) public onlyOracle onlyEvaluation {\n        for (uint256 i = 0; i < clientIds.length; i++) {\n            clientIdReputation[uint256(clientIds[i])] = uint256(clientNewReputations[i]);\n            if (clientRewards[i] > 0) {\n                _payClient(uint256(clientIds[i]), uint256(clientRewards[i]));\n            }\n        }\n        // Update the model address\n        modelAddress = newModelAddress;\n        emit ComputationProvided(requestId);\n        contractStatus = 3;\n    }\n\n    // Function to pay single client the reward\n    function _payClient(uint256 clientId, uint256 reward) private {\n        require(rewardPool >= reward, \"Not enough funds in the reward pool.\");\n        rewardPool -= reward;\n        // Test with 1 wei\n        payable(clientIdToAddress[clientId]).transfer(reward * 1 wei);\n        emit RewardPaid(clientId, reward, roundOfTraining, clientIdToAddress[clientId]);\n        payable(clientIdToAddress[clientId]).transfer(clientIdDeposit[clientId]);\n        clientIdDeposit[clientId] = 0;\n        emit DepositReturned(clientId, clientIdDeposit[clientId], roundOfTraining, clientIdToAddress[clientId]);\n    }\n\n    // ********** Completion Stage **********\n    // Function to start the next round\n    function startNextRound(uint256 nextTimestamp, string memory _testDataHash, string memory _testDataLabelHash) public payable onlyCompleted onlyOwner {\n        require(msg.value > 0, \"Please put deposite.\");\n        rewardPool = msg.value;\n        contractStatus = 1;\n        startTimestamp = block.timestamp;\n        endTimestamp = nextTimestamp;\n        roundOfTraining++;\n        testDataHash = _testDataHash;\n        testDataLabelHash = _testDataLabelHash;\n    }\n\n    // ********** Other Functions **********\n    // Function to update the oracle address\n    function setOracleAddress(address _newOracleAddress) public {\n        // Restrict this function to the contract owner\n        require(msg.sender == contractOwner, \"Only the contract owner can call this function.\");\n        oracleAddress = _newOracleAddress;\n    }\n\n    // Function to transfer ownership of the contract\n    function transferOwnership(address newOwner) public {\n        require(msg.sender == contractOwner, \"Only the contract owner can call this function.\");\n        contractOwner = newOwner;\n    }\n\n    //Function to refund the reward pool\n    function increaseReward() public payable onlyOwner {\n        rewardPool += msg.value;\n    }\n\n    //Function for platform owner to withdraw the platform fee\n    function withdrawPlatformFee() public onlyOracle {\n        require(platformFeePool > 0, \"No platform fee to withdraw.\");\n        payable(oracleAddress).transfer(platformFeePool);\n        platformFeePool = 0;\n    }\n\n    function getClientIdByAddress() public view returns (uint256) {\n        return addressToClientId[msg.sender];\n    }\n\n}\n",
  "sourcePath": "/Users/lokki/Downloads/FYP/fyp_project/ml-platform-contract/contracts/MlContract.sol",
  "compiler": {
    "name": "solc",
    "version": "0.8.13+commit.abaa5c0e.Emscripten.clang"
  },
  "schemaVersion": "3.4.16",
  "updatedAt": "2024-04-09T01:52:16.823Z",
  "devdoc": {
    "kind": "dev",
    "methods": {},
    "version": 1
  },
  "userdoc": {
    "kind": "user",
    "methods": {},
    "version": 1
  }
}