{
    "contractName": "MlPlatformFactory",
    "abi": [
        {
            "inputs": [],
            "stateMutability": "nonpayable",
            "type": "constructor"
        },
        {
            "anonymous": false,
            "inputs": [
                {
                    "indexed": true,
                    "internalType": "address",
                    "name": "owner",
                    "type": "address"
                },
                {
                    "indexed": false,
                    "internalType": "address",
                    "name": "mlPlatformAddress",
                    "type": "address"
                },
                {
                    "indexed": false,
                    "internalType": "uint256",
                    "name": "contractId",
                    "type": "uint256"
                },
                {
                    "indexed": false,
                    "internalType": "uint256",
                    "name": "ddlTimestamp",
                    "type": "uint256"
                },
                {
                    "indexed": false,
                    "internalType": "uint256",
                    "name": "depositRequired",
                    "type": "uint256"
                }
            ],
            "name": "MlPlatformCreated",
            "type": "event"
        },
        {
            "inputs": [],
            "name": "contractCount",
            "outputs": [
                {
                    "internalType": "uint256",
                    "name": "",
                    "type": "uint256"
                }
            ],
            "stateMutability": "view",
            "type": "function",
            "constant": true
        },
        {
            "inputs": [
                {
                    "internalType": "address",
                    "name": "",
                    "type": "address"
                }
            ],
            "name": "contractToIndex",
            "outputs": [
                {
                    "internalType": "uint256",
                    "name": "",
                    "type": "uint256"
                }
            ],
            "stateMutability": "view",
            "type": "function",
            "constant": true
        },
        {
            "inputs": [
                {
                    "internalType": "uint256",
                    "name": "",
                    "type": "uint256"
                }
            ],
            "name": "idToContract",
            "outputs": [
                {
                    "internalType": "address",
                    "name": "",
                    "type": "address"
                }
            ],
            "stateMutability": "view",
            "type": "function",
            "constant": true
        },
        {
            "inputs": [],
            "name": "oracleAddress",
            "outputs": [
                {
                    "internalType": "address",
                    "name": "",
                    "type": "address"
                }
            ],
            "stateMutability": "view",
            "type": "function",
            "constant": true
        },
        {
            "inputs": [
                {
                    "internalType": "address",
                    "name": "",
                    "type": "address"
                },
                {
                    "internalType": "uint256",
                    "name": "",
                    "type": "uint256"
                }
            ],
            "name": "ownerToContractList",
            "outputs": [
                {
                    "internalType": "uint256",
                    "name": "",
                    "type": "uint256"
                }
            ],
            "stateMutability": "view",
            "type": "function",
            "constant": true
        },
        {
            "inputs": [],
            "name": "platformOwner",
            "outputs": [
                {
                    "internalType": "address",
                    "name": "",
                    "type": "address"
                }
            ],
            "stateMutability": "view",
            "type": "function",
            "constant": true
        },
        {
            "inputs": [
                {
                    "internalType": "string",
                    "name": "_modelAddress",
                    "type": "string"
                },
                {
                    "internalType": "string",
                    "name": "_testDataHash",
                    "type": "string"
                },
                {
                    "internalType": "string",
                    "name": "_testDataLabelHash",
                    "type": "string"
                },
                {
                    "internalType": "uint256",
                    "name": "_timstamp",
                    "type": "uint256"
                },
                {
                    "internalType": "uint256",
                    "name": "_depositRequired",
                    "type": "uint256"
                }
            ],
            "name": "createMlPlatform",
            "outputs": [],
            "stateMutability": "payable",
            "type": "function",
            "payable": true
        },
        {
            "inputs": [
                {
                    "internalType": "address",
                    "name": "_newOwner",
                    "type": "address"
                }
            ],
            "name": "transferPlatformOwnership",
            "outputs": [],
            "stateMutability": "nonpayable",
            "type": "function"
        },
        {
            "inputs": [
                {
                    "internalType": "address",
                    "name": "_owner",
                    "type": "address"
                }
            ],
            "name": "getContractList",
            "outputs": [
                {
                    "internalType": "uint256[]",
                    "name": "",
                    "type": "uint256[]"
                }
            ],
            "stateMutability": "view",
            "type": "function",
            "constant": true
        }
    ],
    "bytecode": "0x608060405273ac6c80b1afb4f2a4b1e663d58ec3332f8780e0a2600160006101000a81548173ffffffffffffffffffffffffffffffffffffffff021916908373ffffffffffffffffffffffffffffffffffffffff160217905550600060025534801561006a57600080fd5b50336000806101000a81548173ffffffffffffffffffffffffffffffffffffffff021916908373ffffffffffffffffffffffffffffffffffffffff16021790555061427b806100ba6000396000f3fe608060405260043610620000925760003560e01c80635f59e7c011620000615780635f59e7c0146200017d5780635fddcc60146200019d5780638736381a14620001e157806389954b9b1462000211578063a89ae4ba14620002555762000092565b8063046c155314620000975780634df8ccb114620000c557806350ded7ba14620000f5578063544d34a91462000139575b600080fd5b348015620000a457600080fd5b50620000c36004803603810190620000bd9190620007c1565b62000285565b005b348015620000d257600080fd5b50620000dd62000359565b604051620000ec919062000804565b60405180910390f35b3480156200010257600080fd5b506200012160048036038101906200011b9190620007c1565b6200037d565b6040516200013091906200083c565b60405180910390f35b3480156200014657600080fd5b506200016560048036038101906200015f9190620007c1565b62000395565b60405162000174919062000927565b60405180910390f35b6200019b600480360381019062000195919062000ade565b6200042e565b005b348015620001aa57600080fd5b50620001c96004803603810190620001c3919062000bc3565b620006a9565b604051620001d8919062000804565b60405180910390f35b348015620001ee57600080fd5b50620001f9620006dc565b6040516200020891906200083c565b60405180910390f35b3480156200021e57600080fd5b506200023d600480360381019062000237919062000bf5565b620006e2565b6040516200024c91906200083c565b60405180910390f35b3480156200026257600080fd5b506200026d62000714565b6040516200027c919062000804565b60405180910390f35b60008054906101000a900473ffffffffffffffffffffffffffffffffffffffff1673ffffffffffffffffffffffffffffffffffffffff163373ffffffffffffffffffffffffffffffffffffffff161462000316576040517f08c379a00000000000000000000000000000000000000000000000000000000081526004016200030d9062000cc3565b60405180910390fd5b806000806101000a81548173ffffffffffffffffffffffffffffffffffffffff021916908373ffffffffffffffffffffffffffffffffffffffff16021790555050565b60008054906101000a900473ffffffffffffffffffffffffffffffffffffffff1681565b60056020528060005260406000206000915090505481565b6060600360008373ffffffffffffffffffffffffffffffffffffffff1673ffffffffffffffffffffffffffffffffffffffff1681526020019081526020016000208054806020026020016040519081016040528092919081815260200182805480156200042257602002820191906000526020600020905b8154815260200190600101908083116200040d575b50505050509050919050565b612710341162000475576040517f08c379a00000000000000000000000000000000000000000000000000000000081526004016200046c9062000d35565b60405180910390fd5b428211620004ba576040517f08c379a0000000000000000000000000000000000000000000000000000000008152600401620004b19062000da7565b60405180910390fd5b600034600160009054906101000a900473ffffffffffffffffffffffffffffffffffffffff16338888888888604051620004f4906200073a565b62000506979695949392919062000e4b565b6040518091039082f090508015801562000524573d6000803e3d6000fd5b509050600081905060026000815480929190620005419062000f0c565b9190505550600360003373ffffffffffffffffffffffffffffffffffffffff1673ffffffffffffffffffffffffffffffffffffffff16815260200190815260200160002060025490806001815401808255809150506001900390600052602060002001600090919091909150558060046000600254815260200190815260200160002060006101000a81548173ffffffffffffffffffffffffffffffffffffffff021916908373ffffffffffffffffffffffffffffffffffffffff160217905550600254600560008373ffffffffffffffffffffffffffffffffffffffff1673ffffffffffffffffffffffffffffffffffffffff168152602001908152602001600020819055503373ffffffffffffffffffffffffffffffffffffffff167f58399bf012b788a99b680a6a0d47f159d9c98a47385d040d989b9a75a8fa666082600254878760405162000698949392919062000f59565b60405180910390a250505050505050565b60046020528060005260406000206000915054906101000a900473ffffffffffffffffffffffffffffffffffffffff1681565b60025481565b60036020528160005260406000208181548110620006ff57600080fd5b90600052602060002001600091509150505481565b600160009054906101000a900473ffffffffffffffffffffffffffffffffffffffff1681565b61329f8062000fa783390190565b6000604051905090565b600080fd5b600080fd5b600073ffffffffffffffffffffffffffffffffffffffff82169050919050565b600062000789826200075c565b9050919050565b6200079b816200077c565b8114620007a757600080fd5b50565b600081359050620007bb8162000790565b92915050565b600060208284031215620007da57620007d962000752565b5b6000620007ea84828501620007aa565b91505092915050565b620007fe816200077c565b82525050565b60006020820190506200081b6000830184620007f3565b92915050565b6000819050919050565b620008368162000821565b82525050565b60006020820190506200085360008301846200082b565b92915050565b600081519050919050565b600082825260208201905092915050565b6000819050602082019050919050565b620008908162000821565b82525050565b6000620008a4838362000885565b60208301905092915050565b6000602082019050919050565b6000620008ca8262000859565b620008d6818562000864565b9350620008e38362000875565b8060005b838110156200091a578151620008fe888262000896565b97506200090b83620008b0565b925050600181019050620008e7565b5085935050505092915050565b60006020820190508181036000830152620009438184620008bd565b905092915050565b600080fd5b600080fd5b6000601f19601f8301169050919050565b7f4e487b7100000000000000000000000000000000000000000000000000000000600052604160045260246000fd5b620009a08262000955565b810181811067ffffffffffffffff82111715620009c257620009c162000966565b5b80604052505050565b6000620009d762000748565b9050620009e5828262000995565b919050565b600067ffffffffffffffff82111562000a085762000a0762000966565b5b62000a138262000955565b9050602081019050919050565b82818337600083830152505050565b600062000a4662000a4084620009ea565b620009cb565b90508281526020810184848401111562000a655762000a6462000950565b5b62000a7284828562000a20565b509392505050565b600082601f83011262000a925762000a916200094b565b5b813562000aa484826020860162000a2f565b91505092915050565b62000ab88162000821565b811462000ac457600080fd5b50565b60008135905062000ad88162000aad565b92915050565b600080600080600060a0868803121562000afd5762000afc62000752565b5b600086013567ffffffffffffffff81111562000b1e5762000b1d62000757565b5b62000b2c8882890162000a7a565b955050602086013567ffffffffffffffff81111562000b505762000b4f62000757565b5b62000b5e8882890162000a7a565b945050604086013567ffffffffffffffff81111562000b825762000b8162000757565b5b62000b908882890162000a7a565b935050606062000ba38882890162000ac7565b925050608062000bb68882890162000ac7565b9150509295509295909350565b60006020828403121562000bdc5762000bdb62000752565b5b600062000bec8482850162000ac7565b91505092915050565b6000806040838503121562000c0f5762000c0e62000752565b5b600062000c1f85828601620007aa565b925050602062000c328582860162000ac7565b9150509250929050565b600082825260208201905092915050565b7f4f6e6c792074686520636f6e7472616374206f776e65722063616e2063616c6c60008201527f20746869732066756e6374696f6e2e0000000000000000000000000000000000602082015250565b600062000cab602f8362000c3c565b915062000cb88262000c4d565b604082019050919050565b6000602082019050818103600083015262000cde8162000c9c565b9050919050565b7f506c656173652070757420656e6f756768207265776172642e00000000000000600082015250565b600062000d1d60198362000c3c565b915062000d2a8262000ce5565b602082019050919050565b6000602082019050818103600083015262000d508162000d0e565b9050919050565b7f506c656173652070757420612076616c69642074696d657374616d702e000000600082015250565b600062000d8f601d8362000c3c565b915062000d9c8262000d57565b602082019050919050565b6000602082019050818103600083015262000dc28162000d80565b9050919050565b600081519050919050565b60005b8381101562000df457808201518184015260208101905062000dd7565b8381111562000e04576000848401525b50505050565b600062000e178262000dc9565b62000e23818562000c3c565b935062000e3581856020860162000dd4565b62000e408162000955565b840191505092915050565b600060e08201905062000e62600083018a620007f3565b62000e716020830189620007f3565b818103604083015262000e85818862000e0a565b9050818103606083015262000e9b818762000e0a565b9050818103608083015262000eb1818662000e0a565b905062000ec260a08301856200082b565b62000ed160c08301846200082b565b98975050505050505050565b7f4e487b7100000000000000000000000000000000000000000000000000000000600052601160045260246000fd5b600062000f198262000821565b91507fffffffffffffffffffffffffffffffffffffffffffffffffffffffffffffffff820362000f4e5762000f4d62000edd565b5b600182019050919050565b600060808201905062000f706000830187620007f3565b62000f7f60208301866200082b565b62000f8e60408301856200082b565b62000f9d60608301846200082b565b9594505050505056fe6080604052600a600c55600160125560016013556040516200329f3803806200329f833981810160405281019062000038919062000470565b606434116200007e576040517f08c379a00000000000000000000000000000000000000000000000000000000081526004016200007590620005e1565b60405180910390fd5b866000806101000a81548173ffffffffffffffffffffffffffffffffffffffff021916908373ffffffffffffffffffffffffffffffffffffffff16021790555085600160006101000a81548173ffffffffffffffffffffffffffffffffffffffff021916908373ffffffffffffffffffffffffffffffffffffffff16021790555084600490805190602001906200011792919062000183565b5083600590805190602001906200013092919062000183565b5082600690805190602001906200014992919062000183565b504260028190555081600381905550346007819055506000600981905550600160088190555080600b819055505050505050505062000667565b828054620001919062000632565b90600052602060002090601f016020900481019282620001b5576000855562000201565b82601f10620001d057805160ff191683800117855562000201565b8280016001018555821562000201579182015b8281111562000200578251825591602001919060010190620001e3565b5b50905062000210919062000214565b5090565b5b808211156200022f57600081600090555060010162000215565b5090565b6000604051905090565b600080fd5b600080fd5b600073ffffffffffffffffffffffffffffffffffffffff82169050919050565b6000620002748262000247565b9050919050565b620002868162000267565b81146200029257600080fd5b50565b600081519050620002a6816200027b565b92915050565b600080fd5b600080fd5b6000601f19601f8301169050919050565b7f4e487b7100000000000000000000000000000000000000000000000000000000600052604160045260246000fd5b6200030182620002b6565b810181811067ffffffffffffffff82111715620003235762000322620002c7565b5b80604052505050565b60006200033862000233565b9050620003468282620002f6565b919050565b600067ffffffffffffffff821115620003695762000368620002c7565b5b6200037482620002b6565b9050602081019050919050565b60005b83811015620003a157808201518184015260208101905062000384565b83811115620003b1576000848401525b50505050565b6000620003ce620003c8846200034b565b6200032c565b905082815260208101848484011115620003ed57620003ec620002b1565b5b620003fa84828562000381565b509392505050565b600082601f8301126200041a5762000419620002ac565b5b81516200042c848260208601620003b7565b91505092915050565b6000819050919050565b6200044a8162000435565b81146200045657600080fd5b50565b6000815190506200046a816200043f565b92915050565b600080600080600080600060e0888a0312156200049257620004916200023d565b5b6000620004a28a828b0162000295565b9750506020620004b58a828b0162000295565b965050604088015167ffffffffffffffff811115620004d957620004d862000242565b5b620004e78a828b0162000402565b955050606088015167ffffffffffffffff8111156200050b576200050a62000242565b5b620005198a828b0162000402565b945050608088015167ffffffffffffffff8111156200053d576200053c62000242565b5b6200054b8a828b0162000402565b93505060a06200055e8a828b0162000459565b92505060c0620005718a828b0162000459565b91505092959891949750929550565b600082825260208201905092915050565b7f506c6561736520707574206465706f736974652e000000000000000000000000600082015250565b6000620005c960148362000580565b9150620005d68262000591565b602082019050919050565b60006020820190508181036000830152620005fc81620005ba565b9050919050565b7f4e487b7100000000000000000000000000000000000000000000000000000000600052602260045260246000fd5b600060028204905060018216806200064b57607f821691505b60208210810362000661576200066062000603565b5b50919050565b612c2880620006776000396000f3fe6080604052600436106101665760003560e01c80636a84a985116100d1578063ce606ee01161008a578063e6fd48bc11610064578063e6fd48bc14610514578063f07ff6411461053f578063f2fde38b1461056a578063ff28bcc21461059357610166565b8063ce606ee014610483578063d094ae41146104ae578063df125333146104eb57610166565b80636a84a9851461036f5780637816e2ed1461039a5780638d8a55e7146103c5578063a85adeab14610402578063a89ae4ba1461042d578063c6ee20d21461045857610166565b806338495cdf1161012357806338495cdf1461024d57806339588f101461028a5780634c69c00f146102c75780635841dcb3146102f0578063622aef9e1461031957806366666aa91461034457610166565b8063090085631461016b578063202cefd51461018757806323a21c4c1461019e57806326232a2e146101ba5780632a9605f4146101e55780633597d0e714610210575b600080fd5b61018560048036038101906101809190611990565b61059d565b005b34801561019357600080fd5b5061019c6106d5565b005b6101b860048036038101906101b39190611b03565b61081b565b005b3480156101c657600080fd5b506101cf610b26565b6040516101dc9190611b5b565b60405180910390f35b3480156101f157600080fd5b506101fa610b2c565b6040516102079190611b5b565b60405180910390f35b34801561021c57600080fd5b5061023760048036038101906102329190611990565b610b32565b6040516102449190611bfe565b60405180910390f35b34801561025957600080fd5b50610274600480360381019061026f9190611990565b610bd2565b6040516102819190611c61565b60405180910390f35b34801561029657600080fd5b506102b160048036038101906102ac9190611990565b610c05565b6040516102be9190611b5b565b60405180910390f35b3480156102d357600080fd5b506102ee60048036038101906102e99190611ca8565b610c1d565b005b3480156102fc57600080fd5b5061031760048036038101906103129190611cd5565b610cf0565b005b34801561032557600080fd5b5061032e61108c565b60405161033b9190611b5b565b60405180910390f35b34801561035057600080fd5b50610359611092565b6040516103669190611b5b565b60405180910390f35b34801561037b57600080fd5b50610384611098565b6040516103919190611b5b565b60405180910390f35b3480156103a657600080fd5b506103af61109e565b6040516103bc9190611b5b565b60405180910390f35b3480156103d157600080fd5b506103ec60048036038101906103e79190611ca8565b6110a4565b6040516103f99190611b5b565b60405180910390f35b34801561040e57600080fd5b506104176110bc565b6040516104249190611b5b565b60405180910390f35b34801561043957600080fd5b506104426110c2565b60405161044f9190611c61565b60405180910390f35b34801561046457600080fd5b5061046d6110e6565b60405161047a9190611b5b565b60405180910390f35b34801561048f57600080fd5b506104986110ec565b6040516104a59190611c61565b60405180910390f35b3480156104ba57600080fd5b506104d560048036038101906104d09190611990565b611112565b6040516104e29190611b5b565b60405180910390f35b3480156104f757600080fd5b50610512600480360381019061050d9190611e4b565b61112a565b005b34801561052057600080fd5b50610529611328565b6040516105369190611b5b565b60405180910390f35b34801561054b57600080fd5b5061055461132e565b6040516105619190611b5b565b60405180910390f35b34801561057657600080fd5b50610591600480360381019061058c9190611ca8565b611334565b005b61059b611408565b005b6003600854146105e2576040517f08c379a00000000000000000000000000000000000000000000000000000000081526004016105d990611fa8565b60405180910390fd5b600160009054906101000a900473ffffffffffffffffffffffffffffffffffffffff1673ffffffffffffffffffffffffffffffffffffffff163373ffffffffffffffffffffffffffffffffffffffff1614610672576040517f08c379a00000000000000000000000000000000000000000000000000000000081526004016106699061203a565b60405180910390fd5b600034116106b5576040517f08c379a00000000000000000000000000000000000000000000000000000000081526004016106ac906120a6565b60405180910390fd5b346007819055506001600881905550426002819055508060038190555050565b60008054906101000a900473ffffffffffffffffffffffffffffffffffffffff1673ffffffffffffffffffffffffffffffffffffffff163373ffffffffffffffffffffffffffffffffffffffff1614610763576040517f08c379a000000000000000000000000000000000000000000000000000000000815260040161075a90612138565b60405180910390fd5b6000600a54116107a8576040517f08c379a000000000000000000000000000000000000000000000000000000000815260040161079f906121a4565b60405180910390fd5b60008054906101000a900473ffffffffffffffffffffffffffffffffffffffff1673ffffffffffffffffffffffffffffffffffffffff166108fc600a549081150290604051600060405180830381858888f19350505050158015610810573d6000803e3d6000fd5b506000600a81905550565b600160085414610860576040517f08c379a000000000000000000000000000000000000000000000000000000000815260040161085790612236565b60405180910390fd5b600b5434116108a4576040517f08c379a000000000000000000000000000000000000000000000000000000000815260040161089b906122c8565b60405180910390fd5b6003544211156108e9576040517f08c379a00000000000000000000000000000000000000000000000000000000081526004016108e090612334565b60405180910390fd5b600c54600a60008282546108fd9190612383565b925050819055506000600c543461091491906123d9565b905080600960008282546109289190612383565b92505081905550600080600e60003373ffffffffffffffffffffffffffffffffffffffff1673ffffffffffffffffffffffffffffffffffffffff1681526020019081526020016000205403610a4e5733600d6000601354815260200190815260200160002060006101000a81548173ffffffffffffffffffffffffffffffffffffffff021916908373ffffffffffffffffffffffffffffffffffffffff160217905550601354600e60003373ffffffffffffffffffffffffffffffffffffffff1673ffffffffffffffffffffffffffffffffffffffff16815260200190815260200160002081905550606460106000601354815260200190815260200160002081905550601354905060136000815480929190610a449061240d565b9190505550610a91565b600e60003373ffffffffffffffffffffffffffffffffffffffff1673ffffffffffffffffffffffffffffffffffffffff1681526020019081526020016000205490505b81601160008381526020019081526020016000208190555082600f60008381526020019081526020016000209080519060200190610ad09291906118a3565b507f87ca3e1742bfbecb6f148e63fb9bfdccee8032e23618cf9a01b05cabfb1a4d678184601060008581526020019081526020016000205443604051610b199493929190612455565b60405180910390a1505050565b600c5481565b600b5481565b600f6020528060005260406000206000915090508054610b51906124d0565b80601f0160208091040260200160405190810160405280929190818152602001828054610b7d906124d0565b8015610bca5780601f10610b9f57610100808354040283529160200191610bca565b820191906000526020600020905b815481529060010190602001808311610bad57829003601f168201915b505050505081565b600d6020528060005260406000206000915054906101000a900473ffffffffffffffffffffffffffffffffffffffff1681565b60106020528060005260406000206000915090505481565b600160009054906101000a900473ffffffffffffffffffffffffffffffffffffffff1673ffffffffffffffffffffffffffffffffffffffff163373ffffffffffffffffffffffffffffffffffffffff1614610cad576040517f08c379a0000000000000000000000000000000000000000000000000000000008152600401610ca49061203a565b60405180910390fd5b806000806101000a81548173ffffffffffffffffffffffffffffffffffffffff021916908373ffffffffffffffffffffffffffffffffffffffff16021790555050565b60008054906101000a900473ffffffffffffffffffffffffffffffffffffffff1673ffffffffffffffffffffffffffffffffffffffff163373ffffffffffffffffffffffffffffffffffffffff161480610d975750600160009054906101000a900473ffffffffffffffffffffffffffffffffffffffff1673ffffffffffffffffffffffffffffffffffffffff163373ffffffffffffffffffffffffffffffffffffffff16145b80610de257506000600e60003373ffffffffffffffffffffffffffffffffffffffff1673ffffffffffffffffffffffffffffffffffffffff1681526020019081526020016000205414155b610e21576040517f08c379a0000000000000000000000000000000000000000000000000000000008152600401610e1890612573565b60405180910390fd5b600160085414610e66576040517f08c379a0000000000000000000000000000000000000000000000000000000008152600401610e5d90612236565b60405180910390fd5b600160085414610eab576040517f08c379a0000000000000000000000000000000000000000000000000000000008152600401610ea290612605565b60405180910390fd5b600160009054906101000a900473ffffffffffffffffffffffffffffffffffffffff1673ffffffffffffffffffffffffffffffffffffffff163373ffffffffffffffffffffffffffffffffffffffff161480610f52575060008054906101000a900473ffffffffffffffffffffffffffffffffffffffff1673ffffffffffffffffffffffffffffffffffffffff163373ffffffffffffffffffffffffffffffffffffffff16145b15610fa0576003544211610f9b576040517f08c379a0000000000000000000000000000000000000000000000000000000008152600401610f9290612697565b60405180910390fd5b611076565b62015180600254610fb19190612383565b421015610ff3576040517f08c379a0000000000000000000000000000000000000000000000000000000008152600401610fea9061274f565b60405180910390fd5b6000600e60003373ffffffffffffffffffffffffffffffffffffffff1673ffffffffffffffffffffffffffffffffffffffff1681526020019081526020016000205403611075576040517f08c379a000000000000000000000000000000000000000000000000000000000815260040161106c906127e1565b60405180910390fd5b5b600260088190555061108882826114b3565b5050565b600a5481565b60075481565b60125481565b60135481565b600e6020528060005260406000206000915090505481565b60035481565b60008054906101000a900473ffffffffffffffffffffffffffffffffffffffff1681565b60085481565b600160009054906101000a900473ffffffffffffffffffffffffffffffffffffffff1681565b60116020528060005260406000206000915090505481565b60008054906101000a900473ffffffffffffffffffffffffffffffffffffffff1673ffffffffffffffffffffffffffffffffffffffff163373ffffffffffffffffffffffffffffffffffffffff16146111b8576040517f08c379a00000000000000000000000000000000000000000000000000000000081526004016111af90612138565b60405180910390fd5b6002600854146111fd576040517f08c379a00000000000000000000000000000000000000000000000000000000081526004016111f490612873565b60405180910390fd5b60005b83518110156112ca5782818151811061121c5761121b612893565b5b60200260200101516010600086848151811061123b5761123a612893565b5b6020026020010151815260200190815260200160002081905550600082828151811061126a57611269612893565b5b602002602001015113156112b7576112b684828151811061128e5761128d612893565b5b60200260200101518383815181106112a9576112a8612893565b5b6020026020010151611690565b5b80806112c29061240d565b915050611200565b5083600490805190602001906112e19291906118a3565b507f954d615937b753cf2f287614528733409a3de499a41a341cd1dbf43b24ab0c0f856040516113119190611b5b565b60405180910390a160036008819055505050505050565b60025481565b60095481565b600160009054906101000a900473ffffffffffffffffffffffffffffffffffffffff1673ffffffffffffffffffffffffffffffffffffffff163373ffffffffffffffffffffffffffffffffffffffff16146113c4576040517f08c379a00000000000000000000000000000000000000000000000000000000081526004016113bb9061203a565b60405180910390fd5b80600160006101000a81548173ffffffffffffffffffffffffffffffffffffffff021916908373ffffffffffffffffffffffffffffffffffffffff16021790555050565b600160009054906101000a900473ffffffffffffffffffffffffffffffffffffffff1673ffffffffffffffffffffffffffffffffffffffff163373ffffffffffffffffffffffffffffffffffffffff1614611498576040517f08c379a000000000000000000000000000000000000000000000000000000000815260040161148f9061203a565b60405180910390fd5b34600760008282546114aa9190612383565b92505081905550565b600060125490507faa6d410a17ec6f559fb71643fa84c722d4a372374e7227298461831a170bfbc1816007546040516114ed9291906128c2565b60405180910390a17fee4d138a9a331ee506450fae35e80901dc1d1a0f88d7fe870fabfc6fe8dcdc5081600485856005600660405161153196959493929190612980565b60405180910390a16000600190505b60135481101561163b576040518060200160405280600081525080519060200120600f60008381526020019081526020016000206040516115819190612aa3565b604051809103902014611628577f3910115e651db63dac5c27949180dc96d86ef98258722028d7794c96cd9aa48d8282600f600085815260200190815260200160002060106000868152602001908152602001600020546040516115e89493929190612aba565b60405180910390a160405180602001604052806000815250600f600083815260200190815260200160002090805190602001906116269291906118a3565b505b80806116339061240d565b915050611540565b507f93a213c4c585fbfd035779d3ae8b51184493956fde5f124674c38a9927e389f78160405161166b9190611b5b565b60405180910390a1601260008154809291906116869061240d565b9190505550505050565b8060075410156116d5576040517f08c379a00000000000000000000000000000000000000000000000000000000081526004016116cc90612b78565b60405180910390fd5b80600760008282546116e791906123d9565b92505081905550600d600083815260200190815260200160002060009054906101000a900473ffffffffffffffffffffffffffffffffffffffff1673ffffffffffffffffffffffffffffffffffffffff166108fc6001836117489190612b98565b9081150290604051600060405180830381858888f19350505050158015611773573d6000803e3d6000fd5b507f4d7828f2aa36030cc63cdea79ec646099aa121d019f1a90edb55078939fb84ea82826040516117a59291906128c2565b60405180910390a1600d600083815260200190815260200160002060009054906101000a900473ffffffffffffffffffffffffffffffffffffffff1673ffffffffffffffffffffffffffffffffffffffff166108fc60116000858152602001908152602001600020549081150290604051600060405180830381858888f19350505050158015611839573d6000803e3d6000fd5b50600060116000848152602001908152602001600020819055507f43f1a62374b03888ce7ed69d5599d19e6aa7c4e5863ab594bdaae22bd3637aae8260116000858152602001908152602001600020546040516118979291906128c2565b60405180910390a15050565b8280546118af906124d0565b90600052602060002090601f0160209004810192826118d15760008555611918565b82601f106118ea57805160ff1916838001178555611918565b82800160010185558215611918579182015b828111156119175782518255916020019190600101906118fc565b5b5090506119259190611929565b5090565b5b8082111561194257600081600090555060010161192a565b5090565b6000604051905090565b600080fd5b600080fd5b6000819050919050565b61196d8161195a565b811461197857600080fd5b50565b60008135905061198a81611964565b92915050565b6000602082840312156119a6576119a5611950565b5b60006119b48482850161197b565b91505092915050565b600080fd5b600080fd5b6000601f19601f8301169050919050565b7f4e487b7100000000000000000000000000000000000000000000000000000000600052604160045260246000fd5b611a10826119c7565b810181811067ffffffffffffffff82111715611a2f57611a2e6119d8565b5b80604052505050565b6000611a42611946565b9050611a4e8282611a07565b919050565b600067ffffffffffffffff821115611a6e57611a6d6119d8565b5b611a77826119c7565b9050602081019050919050565b82818337600083830152505050565b6000611aa6611aa184611a53565b611a38565b905082815260208101848484011115611ac257611ac16119c2565b5b611acd848285611a84565b509392505050565b600082601f830112611aea57611ae96119bd565b5b8135611afa848260208601611a93565b91505092915050565b600060208284031215611b1957611b18611950565b5b600082013567ffffffffffffffff811115611b3757611b36611955565b5b611b4384828501611ad5565b91505092915050565b611b558161195a565b82525050565b6000602082019050611b706000830184611b4c565b92915050565b600081519050919050565b600082825260208201905092915050565b60005b83811015611bb0578082015181840152602081019050611b95565b83811115611bbf576000848401525b50505050565b6000611bd082611b76565b611bda8185611b81565b9350611bea818560208601611b92565b611bf3816119c7565b840191505092915050565b60006020820190508181036000830152611c188184611bc5565b905092915050565b600073ffffffffffffffffffffffffffffffffffffffff82169050919050565b6000611c4b82611c20565b9050919050565b611c5b81611c40565b82525050565b6000602082019050611c766000830184611c52565b92915050565b611c8581611c40565b8114611c9057600080fd5b50565b600081359050611ca281611c7c565b92915050565b600060208284031215611cbe57611cbd611950565b5b6000611ccc84828501611c93565b91505092915050565b60008060408385031215611cec57611ceb611950565b5b600083013567ffffffffffffffff811115611d0a57611d09611955565b5b611d1685828601611ad5565b925050602083013567ffffffffffffffff811115611d3757611d36611955565b5b611d4385828601611ad5565b9150509250929050565b600067ffffffffffffffff821115611d6857611d676119d8565b5b602082029050602081019050919050565b600080fd5b6000819050919050565b611d9181611d7e565b8114611d9c57600080fd5b50565b600081359050611dae81611d88565b92915050565b6000611dc7611dc284611d4d565b611a38565b90508083825260208201905060208402830185811115611dea57611de9611d79565b5b835b81811015611e135780611dff8882611d9f565b845260208401935050602081019050611dec565b5050509392505050565b600082601f830112611e3257611e316119bd565b5b8135611e42848260208601611db4565b91505092915050565b600080600080600060a08688031215611e6757611e66611950565b5b6000611e758882890161197b565b955050602086013567ffffffffffffffff811115611e9657611e95611955565b5b611ea288828901611ad5565b945050604086013567ffffffffffffffff811115611ec357611ec2611955565b5b611ecf88828901611e1d565b935050606086013567ffffffffffffffff811115611ef057611eef611955565b5b611efc88828901611e1d565b925050608086013567ffffffffffffffff811115611f1d57611f1c611955565b5b611f2988828901611e1d565b9150509295509295909350565b7f5468652063757272656e7420726f756e64206973206e6f7420636f6d706c657460008201527f65642e0000000000000000000000000000000000000000000000000000000000602082015250565b6000611f92602383611b81565b9150611f9d82611f36565b604082019050919050565b60006020820190508181036000830152611fc181611f85565b9050919050565b7f4f6e6c792074686520636f6e7472616374206f776e65722063616e2063616c6c60008201527f20746869732066756e6374696f6e2e0000000000000000000000000000000000602082015250565b6000612024602f83611b81565b915061202f82611fc8565b604082019050919050565b6000602082019050818103600083015261205381612017565b9050919050565b7f506c6561736520707574206465706f736974652e000000000000000000000000600082015250565b6000612090601483611b81565b915061209b8261205a565b602082019050919050565b600060208201905081810360008301526120bf81612083565b9050919050565b7f4f6e6c7920746865206f7261636c652063616e2063616c6c207468697320667560008201527f6e6374696f6e2e00000000000000000000000000000000000000000000000000602082015250565b6000612122602783611b81565b915061212d826120c6565b604082019050919050565b6000602082019050818103600083015261215181612115565b9050919050565b7f4e6f20706c6174666f726d2066656520746f2077697468647261772e00000000600082015250565b600061218e601c83611b81565b915061219982612158565b602082019050919050565b600060208201905081810360008301526121bd81612181565b9050919050565b7f54686520636f6e7472616374206973206e6f7420696e20746865207375626d6960008201527f7373696f6e2073746167652e0000000000000000000000000000000000000000602082015250565b6000612220602c83611b81565b915061222b826121c4565b604082019050919050565b6000602082019050818103600083015261224f81612213565b9050919050565b7f506c6561736520707574206465706f73697465206174206c656173742031303060008201527f207765692e000000000000000000000000000000000000000000000000000000602082015250565b60006122b2602583611b81565b91506122bd82612256565b604082019050919050565b600060208201905081810360008301526122e1816122a5565b9050919050565b7f546865207375626d697373696f6e20706572696f642068617320656e6465642e600082015250565b600061231e602083611b81565b9150612329826122e8565b602082019050919050565b6000602082019050818103600083015261234d81612311565b9050919050565b7f4e487b7100000000000000000000000000000000000000000000000000000000600052601160045260246000fd5b600061238e8261195a565b91506123998361195a565b9250827fffffffffffffffffffffffffffffffffffffffffffffffffffffffffffffffff038211156123ce576123cd612354565b5b828201905092915050565b60006123e48261195a565b91506123ef8361195a565b92508282101561240257612401612354565b5b828203905092915050565b60006124188261195a565b91507fffffffffffffffffffffffffffffffffffffffffffffffffffffffffffffffff820361244a57612449612354565b5b600182019050919050565b600060808201905061246a6000830187611b4c565b818103602083015261247c8186611bc5565b905061248b6040830185611b4c565b6124986060830184611b4c565b95945050505050565b7f4e487b7100000000000000000000000000000000000000000000000000000000600052602260045260246000fd5b600060028204905060018216806124e857607f821691505b6020821081036124fb576124fa6124a1565b5b50919050565b7f4f6e6c7920746865207061727469636970616e74732063616e2063616c6c207460008201527f6869732066756e6374696f6e2e00000000000000000000000000000000000000602082015250565b600061255d602d83611b81565b915061256882612501565b604082019050919050565b6000602082019050818103600083015261258c81612550565b9050919050565b7f54686520636f6e7472616374206576616c756174696f6e20737461676520686160008201527f73206265656e20737461727465642e0000000000000000000000000000000000602082015250565b60006125ef602f83611b81565b91506125fa82612593565b604082019050919050565b6000602082019050818103600083015261261e816125e2565b9050919050565b7f546865207375626d697373696f6e20706572696f6420686173206e6f7420656e60008201527f646564207965742e000000000000000000000000000000000000000000000000602082015250565b6000612681602883611b81565b915061268c82612625565b604082019050919050565b600060208201905081810360008301526126b081612674565b9050919050565b7f546865207061727469636970616e74732063616e206f6e6c792063616c6c207460008201527f6869732066756e6374696f6e206166746572203120646179206966207468652060208201527f6f776e657220686173206e6f742063616c6c65642069742e0000000000000000604082015250565b6000612739605883611b81565b9150612744826126b7565b606082019050919050565b600060208201905081810360008301526127688161272c565b9050919050565b7f4f6e6c792074686520636c69656e742063616e2063616c6c207468697320667560008201527f6e6374696f6e2e00000000000000000000000000000000000000000000000000602082015250565b60006127cb602783611b81565b91506127d68261276f565b604082019050919050565b600060208201905081810360008301526127fa816127be565b9050919050565b7f54686520636f6e7472616374206973206e6f7420696e20746865206576616c7560008201527f6174696f6e2073746167652e0000000000000000000000000000000000000000602082015250565b600061285d602c83611b81565b915061286882612801565b604082019050919050565b6000602082019050818103600083015261288c81612850565b9050919050565b7f4e487b7100000000000000000000000000000000000000000000000000000000600052603260045260246000fd5b60006040820190506128d76000830185611b4c565b6128e46020830184611b4c565b9392505050565b60008190508160005260206000209050919050565b6000815461290d816124d0565b6129178186611b81565b94506001821660008114612932576001811461294457612977565b60ff1983168652602086019350612977565b61294d856128eb565b60005b8381101561296f57815481890152600182019150602081019050612950565b808801955050505b50505092915050565b600060c0820190506129956000830189611b4c565b81810360208301526129a78188612900565b905081810360408301526129bb8187611bc5565b905081810360608301526129cf8186611bc5565b905081810360808301526129e38185612900565b905081810360a08301526129f78184612900565b9050979650505050505050565b600081905092915050565b60008190508160005260206000209050919050565b60008154612a31816124d0565b612a3b8186612a04565b94506001821660008114612a565760018114612a6757612a9a565b60ff19831686528186019350612a9a565b612a7085612a0f565b60005b83811015612a9257815481890152600182019150602081019050612a73565b838801955050505b50505092915050565b6000612aaf8284612a24565b915081905092915050565b6000608082019050612acf6000830187611b4c565b612adc6020830186611b4c565b8181036040830152612aee8185612900565b9050612afd6060830184611b4c565b95945050505050565b7f4e6f7420656e6f7567682066756e647320696e2074686520726577617264207060008201527f6f6f6c2e00000000000000000000000000000000000000000000000000000000602082015250565b6000612b62602483611b81565b9150612b6d82612b06565b604082019050919050565b60006020820190508181036000830152612b9181612b55565b9050919050565b6000612ba38261195a565b9150612bae8361195a565b9250817fffffffffffffffffffffffffffffffffffffffffffffffffffffffffffffffff0483118215151615612be757612be6612354565b5b82820290509291505056fea264697066735822122069de9d700b9137b7b9366f08b653d1ea05cac58a17516aa4d93ae5007aa9332f64736f6c634300080d0033a26469706673582212203cc48c41cc5e2df72a1e1e728676abae9f0a4fd8361640df4a2980f16c8c5b5c64736f6c634300080d0033",
    "immutableReferences": {},
    "source": "// SPDX-License-Identifier: MIT\npragma solidity ^0.8.0;\nimport \"./MlContract.sol\";\n\ncontract MlPlatformFactory {\n    // Record the deployed MlPlatforms\n    address public platformOwner;\n    address public oracleAddress = 0xAc6c80B1AFb4F2a4B1E663D58EC3332F8780e0a2; // For loacl testnet environment TODO: Change for testnet\n    uint256 public contractCount = 0;\n    mapping(address => uint256[]) public ownerToContractList;\n    mapping(uint256 => address) public idToContract;\n    mapping(address => uint256) public contractToIndex;\n\n    // Initialize the contract which will set the \n    constructor() {\n        platformOwner = msg.sender;\n    }\n\n    // Modifiers to used\n    modifier onlyOwner() {\n        require(msg.sender == platformOwner, \"Only the contract owner can call this function.\");\n        _;\n    }\n\n    // Event to emit when a new MlPlatform is created for off-chain Oracle to listen to\n    event MlPlatformCreated(address indexed owner, address mlPlatformAddress, uint256 contractId, uint256 ddlTimestamp, uint256 depositRequired);\n\n    // Function to create a new MlPlatform\n    function createMlPlatform(\n        string memory _modelAddress,\n        string memory _testDataHash,\n        string memory _testDataLabelHash,\n        uint256 _timstamp,\n        uint256 _depositRequired\n    ) public payable {\n        require(msg.value > 10000, \"Please put enough reward.\");\n        require(_timstamp > block.timestamp, \"Please put a valid timestamp.\");\n        MlContract newContract = (new MlContract){ value : msg.value }(oracleAddress, msg.sender, _modelAddress, _testDataHash, _testDataLabelHash, _timstamp, _depositRequired);\n        address contractAdd = address(newContract);\n        contractCount++;\n        ownerToContractList[msg.sender].push(contractCount);\n        idToContract[contractCount] = contractAdd;\n        contractToIndex[contractAdd] = contractCount;\n        emit MlPlatformCreated(msg.sender, contractAdd, contractCount, _timstamp, _depositRequired);\n    }\n\n    function transferPlatformOwnership(address _newOwner) public onlyOwner {\n        platformOwner = _newOwner;\n    }\n\n    function getContractList(address _owner) public view returns (uint256[] memory) {\n        return ownerToContractList[_owner];\n    }\n}\n",
    "sourcePath": "/Users/lokki/Downloads/FYP/fyp_project/ml-platform-contract/contracts/MlPlatformFactory.sol",
    "compiler": {
        "name": "solc",
        "version": "0.8.13+commit.abaa5c0e.Emscripten.clang"
    },
    "schemaVersion": "3.4.16",
    "updatedAt": "2024-04-06T14:56:34.591Z",
    "networkType": "ethereum",
    "devdoc": {
        "kind": "dev",
        "methods": {},
        "version": 1
    },
    "userdoc": {
        "kind": "user",
        "methods": {},
        "version": 1
    }
}